:0400000018EF0EF0F7
:101B4600D6EC0DF0C5821200D6EC0DF0C580120061
:101B5600D6EC0DF0C584120003FFFF0001FFFF0065
:101B6600000CFF060001000602FF00007F0E176E44
:101B7600000E166E4D0EE9EC0DF0C0EF0DF000EF05
:101B860000F0026ED6EC0DF002C0C9FF9EA6CEEFA5
:101B96000DF0D0EF0DF0C9EF0DF09E86C544E84676
:101BA600030B010B1200C7B4DBEF0DF0DDEF0DF0F8
:101BB600D6EF0DF0C5CF01F01F0E0116D8A4E6EF43
:101BC6000DF0E8EF0DF0D6EF0DF01200196EA00E35
:101BD6000E6E860E0F6E010E106E000E116E33EC39
:101BE6000EF016C003F017C004F019C005F0FDECA6
:101BF6000DF01200A7EC0DF0A00EC4EC0DF00009DC
:101C0600D8B408EF0EF00AEF0EF00CEF0EF0A3ECCE
:101C16000DF00450C4EC0DF00350C4EC0DF005506B
:101C2600C4EC0DF0ABEC0DF012005E0EF66E1B0E62
:101C3600F76E000EF86E00EE1AF010EE14F00900C2
:101C4600F5CFEEFFE550E150FAE1336A326A316AC8
:101C5600306A2F6A2E6A000EF86E0001B9EF0DF099
:101C6600280EC66E000EC56E000E016E240E026EA4
:101C7600F40E036E000E046E0EC012F00FC013F0C9
:101C860010C014F011C015F0020ED890123613369B
:101C960014361536E82E48EF0EF012C005F013C0C4
:101CA60006F014C007F015C008F065EC0EF001044C
:101CB600C86E000EC76E2A0E016E000E026EB7ECDD
:101CC6000EF01200000E096E000E0A6E000E0B6E6C
:101CD600000E0C6E0550061007100810D8B476EFEB
:101CE6000EF078EF0EF0AEEF0EF0010E0D6E82EFF5
:101CF6000EF0D89005360636073608360D2A08AE99
:101D060087EF0EF089EF0EF07CEF0EF0D8900936D3
:101D16000A360B360C360550015C06500258075041
:101D2600035808500458D8A09BEF0EF09DEF0EF014
:101D3600A6EF0EF00550015E0650025A0750035AF0
:101D46000850045A0980D890083207320632053204
:101D56000D2E89EF0EF009C001F00AC002F00BC08B
:101D660003F00CC004F01200000E056E010E346E76
:101D76003350D8A4C1EF0EF0C3EF0EF002EF0FF010
:101D8600DCEF0EF0000E806E01EF0FF0000E00018A
:101D9600866F01EF0FF0000E946E01EF0FF0000E4C
:101DA6000001886F01EF0FF0000E0001896F01EF4F
:101DB6000FF001C0D9FF02C0DAFFDF50036E046ADC
:101DC6000450000AD8B4EAEF0EF001EF0FF003500A
:101DD600000AD8B4C5EF0EF0010AD8B4C9EF0EF068
:101DE600030AD8B4CEEF0EF0010AD8B4D2EF0EF043
:101DF600070AD8B4D7EF0EF001EF0FF0332A01C06F
:101E0600D9FF02C0DAFFDF50D8A40CEF0FF00EEFB7
:101E16000FF016EF0FF020EE03F00150D926025016
:101E2600DA22DF50C11201500210D8B41DEF0FF0B4
:101E36001FEF0FF0FDEF0FF0E2EF0FF020EE01F0D5
:101E46000150D9260250DA22DF508012FFEF0FF040
:101E560020EE01F00150D9260250DA22DF500001AF
:101E66008613FFEF0FF020EE01F00150D926025045
:101E7600DA22DF509412FFEF0FF020EE01F001504E
:101E8600D9260250DA22DF5000018813FFEF0FF047
:101E960020EE01F00150D9260250DA22DF5000016F
:101EA6008913FFEF0FF00F0E0526FFEF0FF001C0AD
:101EB600D9FF02C0DAFFDF50036E046A0450000A3D
:101EC600D8B468EF0FF056EF0FF00350000AD8B4FD
:101ED60021EF0FF0010AD8B42BEF0FF0030AD8B4A4
:101EE60036EF0FF0010AD8B440EF0FF0070AD8B466
:101EF6004BEF0FF056EF0FF020EE01F00150D92610
:101F06000250DA22DF50FF0A8016FFEF0FF020EEB4
:101F160001F00150D9260250DA22DF50FF0A0001F3
:101F26008617FFEF0FF020EE01F00150D926025080
:101F3600DA22DF50FF0A9416FFEF0FF020EE01F0D1
:101F46000150D9260250DA22DF50FF0A0001881715
:101F5600FFEF0FF020EE01F00150D9260250DA22F1
:101F6600DF50FF0A00018917FFEF0FF001C0D9FF0C
:101F760002C0DAFFDF50036E046A0450000AD8B4C8
:101F8600C7EF0FF056EF0FF00350000AD8B47FEFFB
:101F96000FF0010AD8B48AEF0FF0030AD8B496EF0F
:101FA6000FF0010AD8B4A1EF0FF0070AD8B4ADEFCD
:101FB6000FF056EF0FF0130E0526FFEF0FF020EE91
:101FC60002F00150D9260250DA22DF50036E046A6D
:101FD6000450000AD8B4F2EF0FF0DEEF0FF0035012
:101FE600000AD8B45AEF0FF0FF0AD8B4B9EF0FF0D1
:0A1FF600DEEF0FF0110E05261200B9
:020000040020DA
:08000000FFFFFFFFFFFFFFFF00
:020000040030CA
:0E000000FF251F3FFFBF85FF03C003E0034045
:00000001FF
