:04000000FCEF0DF014
:101AB400A2EC0DF0C5821200A2EC0DF0C58012005C
:101AC400A2EC0DF0C5841200C58AA2EC0DF0C58805
:101AD400120003FFFF0001FFFF00000CFF060001DE
:101AE400000602FF000008C003F009C004F0C9ECBE
:101AF4000DF006C0D9FF07C0DAFFDF6E1200A2ECBA
:101B04000DF0C5869EA689EF0DF08BEF0DF084EFE6
:101B14000DF09E96A2EC0DF0C9501200026EA2ECDC
:101B24000DF002C0C9FF9EA69AEF0DF09CEF0DF0D8
:101B340095EF0DF09E86C544E846030B010B120099
:101B4400C7B4A7EF0DF0A9EF0DF0A2EF0DF0C5CFCC
:101B540001F01F0E0116D8A4B2EF0DF0B4EF0DF092
:101B6400A2EF0DF01200196EA00E0E6E860E0F6E0F
:101B7400010E106E000E116E33EC0EF016C003F061
:101B840017C004F019C005F0E1EC0DF012005EEC92
:101B94000DF05AEC0DF0045090EC0DF0035090EC65
:101BA4000DF05AEC0DF0A10E90EC0DF081EC0DF05F
:101BB400056E66EC0DF062EC0DF0055012005EEC63
:101BC4000DF0A00E90EC0DF00009D8B4ECEF0DF080
:101BD400EEEF0DF0F0EF0DF05AEC0DF0045090EC38
:101BE4000DF0035090EC0DF0055090EC0DF062EC0C
:101BF4000DF01200D60EF66E1A0EF76E000EF86E89
:101C040000EE1AF010EE14F00900F5CFEEFFE550E7
:101C1400E150FAE1336A326A316A306A2F6A2E6A15
:101C2400000EF86E000117EF0EF07F0E176E000E17
:101C3400166E4D0EB5EC0DF0000E066E000E076E1E
:101C44007F0E096E000E086E75EC0DF07F0E176E98
:101C5400210E166E000EB5EC0DF02FEF0EF000EF16
:101C640000F0280EC66E000EC56E000E016E240E26
:101C7400026EF40E036E000E046E0EC012F00FC05E
:101C840013F010C014F011C015F0020ED8901236E3
:101C9400133614361536E82E48EF0EF012C005F050
:101CA40013C006F014C007F015C008F065EC0EF080
:101CB4000104C86E000EC76E2A0E016E000E026E7D
:101CC400B7EC0EF01200000E096E000E0A6E000E44
:101CD4000B6E000E0C6E0550061007100810D8B4D9
:101CE40076EF0EF078EF0EF0AEEF0EF0010E0D6E03
:101CF40082EF0EF0D89005360636073608360D2AE0
:101D040008AE87EF0EF089EF0EF07CEF0EF0D8905E
:101D140009360A360B360C360550015C065002585B
:101D24000750035808500458D8A09BEF0EF09DEFBD
:101D34000EF0A6EF0EF00550015E0650025A075051
:101D4400035A0850045A0980D890083207320632E0
:101D540005320D2E89EF0EF009C001F00AC002F021
:101D64000BC003F00CC004F01200000E056E010E4F
:101D7400346E3350D8A4C1EF0EF0C3EF0EF002EF6F
:101D84000FF0DCEF0EF0000E806E01EF0FF0000E8E
:101D94000001866F01EF0FF0000E946E01EF0FF05B
:101DA400000E0001886F01EF0FF0000E0001896F33
:101DB40001EF0FF001C0D9FF02C0DAFFDF50036E5C
:101DC400046A0450000AD8B4EAEF0EF001EF0FF0F1
:101DD4000350000AD8B4C5EF0EF0010AD8B4C9EF15
:101DE4000EF0030AD8B4CEEF0EF0010AD8B4D2EF45
:101DF4000EF0070AD8B4D7EF0EF001EF0FF0332A34
:101E040001C0D9FF02C0DAFFDF50D8A40CEF0FF0F5
:101E14000EEF0FF016EF0FF020EE03F00150D9266D
:101E24000250DA22DF50C11201500210D8B41DEF63
:101E34000FF01FEF0FF0FDEF0FF0E2EF0FF020EEC9
:101E440001F00150D9260250DA22DF508012FFEF50
:101E54000FF020EE01F00150D9260250DA22DF50B3
:101E640000018613FFEF0FF020EE01F00150D92698
:101E74000250DA22DF509412FFEF0FF020EE01F04F
:101E84000150D9260250DA22DF5000018813FFEFF7
:101E94000FF020EE01F00150D9260250DA22DF5073
:101EA40000018913FFEF0FF00F0E0526FFEF0FF06F
:101EB40001C0D9FF02C0DAFFDF50036E046A045088
:101EC400000AD8B468EF0FF056EF0FF00350000A81
:101ED400D8B421EF0FF0010AD8B42BEF0FF0030AA6
:101EE400D8B436EF0FF0010AD8B440EF0FF0070A68
:101EF400D8B44BEF0FF056EF0FF020EE01F0015085
:101F0400D9260250DA22DF50FF0A8016FFEF0FF0C5
:101F140020EE01F00150D9260250DA22DF50FF0AE8
:101F240000018617FFEF0FF020EE01F00150D926D3
:101F34000250DA22DF50FF0A9416FFEF0FF020EE72
:101F440001F00150D9260250DA22DF50FF0A0001C5
:101F54008817FFEF0FF020EE01F00150D926025050
:101F6400DA22DF50FF0A00018917FFEF0FF001C0EA
:101F7400D9FF02C0DAFFDF50036E046A0450000A7E
:101F8400D8B4C7EF0FF056EF0FF00350000AD8B4DF
:101F94007FEF0FF0010AD8B48AEF0FF0030AD8B428
:101FA40096EF0FF0010AD8B4A1EF0FF0070AD8B4E6
:101FB400ADEF0FF056EF0FF0130E0526FFEF0FF005
:101FC40020EE02F00150D9260250DA22DF50036ECF
:101FD400046A0450000AD8B4F2EF0FF0DEEF0FF0F9
:101FE4000350000AD8B45AEF0FF0FF0AD8B4B9EF7F
:0C1FF4000FF0DEEF0FF0110E05261200BA
:020000040020DA
:08000000FFFFFFFFFFFFFFFF00
:020000040030CA
:0E000000FF251F3FFFBF85FF03C003E0034045
:00000001FF
